:1000000000300020E904000035050000390500003B
:1000100000000000000000000000000000000000E0
:100020000000000000000000000000003D0500008E
:100030000000000000000000410500004505000030
:1000400031050000310500003105000031050000D8
:1000500031050000310500003105000031050000C8
:10006000490500004D050000510500005505000040
:10007000590500005D050000610500003105000024
:100080003105000031050000310500003105000098
:100090006505000031050000310500003105000054
:1000A0003105000031050000310500003105000078
:1000B0003105000031050000690500006D050000F4
:10040000FFFFFFFFFFFFFFFFFFFFFFFFFFFFFEFFFD
:1004100010B5064C2378002B07D1054B002B02D0DA
:10042000044800E000BF0123237010BD88F1FF1FC6
:1004300000000000643D000008B5084B002B03D00D
:100440000748084900E000BF07480368002B03D0B5
:10045000064B002B00D0984708BDC04600000000A6
:10046000643D00008CF1FF1F84F1FF1F00000000BD
:10047000164B002B00D1144B9D46402292029A1A33
:10048000924600218B460F461348144A121A03F075
:10049000B0F90F4B002B00D098470E4B002B00D02B
:1004A00098470020002104000D000D48002802D0CC
:1004B0000C4800E000BF03F06DF92000290001F0B6
:1004C000E5FC03F051F9C0460000080000300020B0
:1004D000000000000000000088F1FF1FFCF1FF1F7A
:1004E000000000000000000072B60A480A490160DE
:1004F0000A6882F30888094880470949094A0A4B73
:100500009B1A03DD043BC858D050FBDC62B6074899
:100510008047000008ED00E00000000011370000F7
:100520004C3F000000F0FF1F88F1FF1F7104000026
:100530000F4800470F4800470F4800470F48004743
:100540000F4800470F4800470F4800470F48004733
:100550000F4800470F4800470F4800470F48004723
:100560000F4800470F4800470F4800470E48004714
:100570003105000035050000390500003D0500008B
:100580004105000045050000092B0000292B000053
:10059000452D0000852D0000ED31000011320000D6
:1005A00035320000992C0000492B0000002934D07E
:1005B0000123002210B488422CD301242407A14235
:1005C00004D2814202D209011B01F8E7E400A142F2
:1005D00004D2814202D249005B00F8E7884201D38D
:1005E000401A1A434C08A04202D3001B5C08224365
:1005F0008C08A04202D3001B9C082243CC08A042D6
:1006000002D3001BDC082243002803D01B0901D0C1
:100610000909E3E7101C10BC7047002801D0002036
:10062000C04307B4024802A14018029003BDC0466F
:10063000D90000000029F0D003B5FFF7B9FF0EBCC8
:100640004243891A1847C046002941D010B4041CFF
:100650004C40A44601230022002900D5494200282D
:1006600000D5404288422CD301242407A14204D261
:10067000814202D209011B01F8E7E400A14204D241
:10068000814202D249005B00F8E7884201D3401A58
:100690001A434C08A04202D3001B5C0822438C087A
:1006A000A04202D3001B9C082243CC08A04202D3E4
:1006B000001BDC082243002803D01B0901D00909D4
:1006C000E3E7101C6446002C00D5404210BC704784
:1006D000002806D003DB0020C043400801E0802052
:1006E000000607B4024802A14018029003BDC046AC
:1006F000190000000029EBD003B5FFF7A7FF0EBCDF
:100700004243891A1847C0467047C04603685A00DA
:1007100003D45B005B08C0187047802212061343A5
:10072000F9E7C046F0B55F46444656464D46F0B43C
:10073000804683B09346002923D0013901918A462F
:1007400000275246BB18DC0FE41864104346E5004E
:100750005E19301CFFF7DAFF019A8146A24219D0D8
:10076000083543465819FFF7D1FFD94504D9BC4293
:1007700007D0013CA246E4E70138584502D2671C85
:10078000DFE70026301C03B03CBC90469946A246E9
:10079000AB46F0BD5845EAD8F4E7C046012809D079
:1007A000022805D0002801D0002070470248FCE74D
:1007B0000248FAE70248F8E7B90E0000D10E00003F
:1007C000C50E000030B5244B83B0041C8D1E002BD9
:1007D0003CD0281C01A900E000BF031C002B20D046
:1007E0002A1C0199FFF79EFF051E1DD0FFF78EFF03
:1007F0006B68A064012B10D0281D002B20DBFFF7B5
:1008000085FF0023E06423650368002B0FDBFFF7FF
:100810007DFF2061002003B030BD0023236105204F
:10082000F9E723610920F6E720610920F3E71B01BE
:10083000180FFFF7B3FF2061002805D10920EAE770
:100840000123E0642365DFE70020E4E70348044B6D
:100850001B1ADB100193C3E7000000003C3E0000C0
:10086000443F0000036810B5041CDA0705D49A075A
:100870000FD5483000F07EFC23685A070FD51A07C1
:1008800014D5DA0604D4E8235B00E01800F07EFCFF
:1008900010BD483000F06AFC23685A07EFD4201CD2
:1008A000D03000F06BFC23681A07EAD4A8235B0061
:1008B000E01800F067FC2368E3E7C0460268002305
:1008C000002A00D01318181C7047C0460920704732
:1008D0007047C04638B5041C0D1C08E02B6C012085
:1008E0006361211C2A1C23699847082807D1201C12
:1008F000296CFFF767FF0028F0D002F02DFF0728D2
:10090000FBD10020296CFFF7E3FF281D00F018FC45
:10091000F0B54F464646C0B4C368314C9846A5442E
:100920008369051C171C0431402202AC03A89946B8
:1009300002F056FF0023281C216C0293FFF742FFB0
:100940007B1E9F41061C0937002E14D0A36B10217B
:1009500063644B4601933943009401202A1C2B1CED
:10096000C047002832D1301CF3239B009D440CBCAF
:1009700090469946F0BD236CF0226B61211C520019
:100980007AA802F02DFF291C7AAA2B69381C9847F7
:10099000889B061C63644B46019300940120391C1C
:1009A0002A1C2B1CC047002810D1F022201C7AA939
:1009B000520002F015FF082E06D1281C216CFFF70B
:1009C00001FF0927061CBFE7072E01D00920CBE74E
:1009D0000020216CFFF77CFF03A800F0B1FBC046AC
:1009E00034FCFFFF406C704770B5CB6BF8B00B6404
:1009F000041C0E1C01A80431402202F0F1FE012368
:100A00005B42009306E0211C6A4623699847051E55
:100A1000082D08D1201C1099FFF7D4FE0028F2D031
:100A2000092078B070BD6846FFF71CFF062DF7D18E
:100A3000201C311CFFF74EFF08B58261DA6BC160E4
:100A40001A64191C0022FFF763FF08BD38B543691B
:100A5000041C0B64C3680D1C002B04D00122FFF79B
:100A600057FF02F079FE0220211C2A1C23699847B7
:100A7000072807D0082803D1201C291CFFF72AFFCC
:100A800002F06AFE0020296CFFF722FF281D00F00B
:100A900057FBC04608B5C368002B05D0CB6B0022BE
:100AA0000B64FFF735FF08BDFFF79EFFFBE7C0466D
:100AB0007047C04608B58368011C002B01D0012097
:100AC000984708BD10B5012907D0002907D0033980
:100AD0000224012901D9201C10BD0124FBE70224B6
:100AE000002BF8D10F2AF6D8920080184268029B9A
:100AF00000241A60EFE7C04600B585B003AB0A1CBE
:100B0000009300210023FFF7DDFF039805B000BD2F
:100B100010B5012907D0002907D003390224012983
:100B200001D9201C10BD0124FBE70224002BF8D1C1
:100B30000F2AF6D8029B92001B688018436000249D
:100B4000EFE7C04600B585B00B1C039203AA0092E4
:100B500000211A1C0023FFF7DBFF05B000BDC046D3
:100B600070B5194CD36BA5441364061C0D1C17A853
:100B7000111D402202F034FE01235B42169313E064
:100B800016A80C216A46FFF7DDFF16A8291CB047FE
:100B900000280FD10820694616AA049B9847041E16
:100BA000052C08D0092805D068462699FFF70AFECB
:100BB0000028E5D0092416A8FFF754FE201C8E2338
:100BC0009B009D4470BDC046C8FDFFFFF0B55F4669
:100BD00056464D464446F0B40C1C1D1CE36C93462F
:100BE00003221E1D111C1B688BB00140019107934D
:100BF0000896002D69D11B02079325236B4409A990
:100C00001D700A70019A022A00D171E0236DDB0782
:100C100048D408230021034002910393A946356874
:100C2000002D00D127E14A46022A4BD0358877882B
:100C3000043601239A465146A26C3B1C8B43D218C2
:100C400058460F219046FFF757FF0022804506D8EF
:100C50002A1C53469A434244904280414242012317
:100C60001F407F001D403D43012D43D0002D60D02B
:100C7000022D1FD13368590049088A46019900297D
:100C80006AD1002A07D0039A002A00D189E0514690
:100C9000002900D1B1E0002B68DB534601339B00F3
:100CA000F618BCE700220292022D4ADDFFF70EFE85
:100CB00000284CD009200BB03CBC90469946A24677
:100CC000AB46F0BD77680836B3E7022D9ADC2521E4
:100CD0001A0C69441B040A70079309A902230B70BC
:100CE000FF231A409200B618019A022A00D08DE71D
:100CF000A66B8BE7019B002B3AD1002A17D03168F5
:100D00007368CD0F9A1CD5D0211C58310691013340
:100D100000D1B2E0301DFFF7D1FD06AB011C2A1C4B
:100D2000201C009300E000BF002800D0B4E008368B
:100D300075E70199002902D0002A00D088E0043626
:100D40006DE7584607A900F0C7FA0028B2D1029B08
:100D5000002B5CD10820AEE758460D21256AFFF72D
:100D6000CBFE854263D03368002B96DA043694E7D5
:100D700058460D21256AFFF7BFFE8542D7D1A36AE9
:100D80009E42D4D1301CFFF7C1FC0F21021C5846F3
:100D9000FFF7D8FE58460021221CFFF7D3FE07209C
:100DA00089E75346002B28D0251C00235835371DD2
:100DB00006A904961E1C4B46A04605932C1C89468A
:100DC00003E00437554516D02E1C381C0694FFF757
:100DD00075FD0022011C4B464046751C00E000BF1B
:100DE0000028EED0059A4446B0469146049EC2457E
:100DF00003D03368B8E7049E444658460D21FFF7F8
:100E00007BFE069A20626262A662062053E70F21EB
:100E10005846FFF771FE0E21021C5846FFF792FE5E
:100E200058460F21234AFFF78DFE072043E7A16AAA
:100E30008E4298D10023E362042323635246331D7C
:100E4000A26263633368002B21DB0121029124E756
:100E5000301CFFF75BFC0436051CA663201C00E079
:100E600000BF002800D125E758460F212A1CFFF7B4
:100E700069FE07201FE74D4616E758460D21FFF78C
:100E80003BFE2062069A6262A662062013E7504685
:100E900001308000301876E7071C0D215846FFF717
:100EA0002BFE2062022FEDD10699231C2C33E16228
:100EB0006362E9E70000000008B50023FFF786FE43
:100EC00008BDC04608B50123FFF780FE08BDC04637
:100ED00008B50223FFF77AFE08BDC046F0B54746C5
:100EE00080B4061CC2B0151C1C1C01294CD0002962
:100EF00031D0032908D0042901D1002B58D0022079
:100F000042B004BC9046F0BD032BF8D11504170C79
:100F10002D0CEB19102BF2D8036808221A4200D0CE
:100F2000EFE020AC201C00F02FF9B06BFF006D004B
:100F3000031CE7196A1E002D07D0391A1F68CF500D
:100F40000433013AFAD2AD004319B363201C00F018
:100F500019F90020D4E70220002BD1D11704B26B7D
:100F60003F0C311C00230120041C9C40274202D06E
:100F7000146804324C6001330431102BF4D100208A
:100F8000AF04BDD4B263BBE71504170C2D0C012BC5
:100F90002DD0052BB3D1EB19202BB0D80F2F00D8B3
:100FA00097E0A846002D00D191E00F2F3AD827E016
:100FB000102AA4D8036810221A4200D08EE020AC78
:100FC000201C00F0E5F8B16B00230120021C9A40C0
:100FD000154203D00F689A00A75004310133042B47
:100FE000F4D1201CB16300F0D1F8002088E7EB19A0
:100FF000102B00D983E70F2F00D980E70021884606
:10100000336801221A420DD0191C91430A1C316029
:10101000052C00D18BE003229343301C3360483011
:1010200000F0A6F84246002A03D0336804221A4290
:1010300076D1012C45D00F2F6BD94146002946D0DF
:10104000684600F09DF81023DB1BB56B291C002BB4
:1010500010DD5B0020AAF80010181A1C9C46013A0B
:101060002B1C401B1968C1500433013AFAD2624666
:10107000910069184346002B15D05B009C463B1E2F
:10108000102B00D21023181C1038C00000AD62468F
:101090002818013A0023CD58C5500433013AFAD23A
:1010A000624695004919012C20D0B1630F2F24D935
:1010B0004346002B00D14CE7684600F05FF8002063
:1010C0001EE720A800F054F84346002BBBD12B1C90
:1010D000BBE7102B21D9103B984666E7E8219343E4
:1010E00049000360401800F053F868E7043120A875
:1010F000B16300F03BF8002002E720A800F03AF8C6
:10110000D6E7A824934364000360001900F03CF87C
:1011100007E720A800F030F88FE7002290466FE73D
:101120009343301C3360D03000F02AF881E702236B
:101130001A43301C3260483000F01EF872E7C04697
:10114000011C343138C9043B9C461D60A646011C75
:1011500020313CC990469946A246AB46011C083155
:10116000FCC941680068E54600BDC0467047C046FE
:101170007047C0467047C0467047C0467047C0467B
:101180007047C0467047C0467047C0467047C0466B
:101190007047C04601B401A801B585B0FFB408A8E6
:1011A00041464A4653465C4665463EC001A83EC895
:1011B0000F98009000230CB401A9FFF715FC109BB9
:1011C00012B0184701B401A801B585B0FFB408A852
:1011D00041464A4653465C4665463EC001A83EC865
:1011E0000F98009000230CB401A9FFF72FFC109B6F
:1011F00012B0184701B401A801B585B0FFB408A822
:1012000041464A4653465C4665463EC001A83EC834
:101210000F98009000230CB401A9FFF73BFC109B32
:1012200012B0184701B401A801B585B0FFB408A8F1
:1012300041464A4653465C4665463EC001A83EC804
:101240000F98009000230CB401ABFFF7F5FB109B47
:1012500012B0184701B401A801B585B0FFB408A8C1
:1012600041464A4653465C4665463EC001A83EC8D4
:101270000F98009000230CB401AAFFF771FC109B9B
:1012800012B01847027A031C002A04D1427AB02017
:10129000002A07D17047013A0272006802021A6000
:1012A000000EF7E7013A5A725A68111D10680322BE
:1012B00059601A72F2E7C04600B585B003AB0093DF
:1012C00000210C220023FFF7FDFB039805B000BDB1
:1012D00008B5FFF7F1FF08BDF0B54D465F4656462D
:1012E0004446F0B40F2287B00D1C07230021061CD2
:1012F00003917F2790469946281CFFF7C3FF041EE1
:10130000B02C00D1C8E0031CBB43DBB2002B2AD0B9
:10131000031C41468B43DBB2802B00D181E0902B34
:1013200042D0A02B4FD0B02B62D0C02B00D195E083
:10133000031C49468B43DBB2D02B0BD10C408022DF
:10134000013412032243301C01210523FFF7C6FD9F
:101350000028D1D00924201C07B03CBC90469946F7
:10136000A246AB46F0BD8300FF221340043305AA1A
:10137000009200219B469246301C0D220023FFF76D
:10138000A1FB059963060BD40B1C5B4405935246E5
:101390000092301C00210D220023FFF7B9FBABE7C0
:1013A0005A468B1A0593F2E70D2303400D2BD1D03B
:1013B00005AC424602400094301C00210023FFF798
:1013C00081FB0094E5E7FF231B014A468243191C79
:1013D00011410A1C1A40030702D58023DB011A437E
:1013E000301C00210023FFF779FD0028B2D183E7EC
:1013F000B12865D0B22878D0B32800D1A0E0FC2372
:101400000340B42BA6D04A46144080220134120374
:101410002243301C01210123FFF760FD002899D1F0
:101420006AE70402281CFFF72DFF204380242402D2
:10143000A04200D18EE70201000592460021020C75
:101440000023301CFFF74AFD002800D082E75346F6
:10145000234200D150E7012103914DE7C6287BD0FC
:10146000C72800D18CE0031C4A469343DBB2C02B53
:1014700000D19AE0C82800D19DE0C92800D069E7D2
:10148000281CFFF7FFFE4246434602409843C0B285
:1014900001320003024356E703990024002900D0DB
:1014A00059E705AD0095301C0E220023FFF70AFB1B
:1014B0000095301C00210F220023FFF729FB4AE78B
:1014C000281CFFF7DFFE021E00D143E7031C414644
:1014D0008B43DBB2002B00D03CE7301C0021FFF730
:1014E000FDFC002800D035E706E705AA002300929E
:1014F00000219246301C0D22FFF7E4FA281CFFF76A
:10150000C1FE031CBB43DBB20224002B0DD0059BA4
:101510003840A04018180590281CFFF7B3FE031CA4
:10152000BB43DBB20734002BF1D105998122920035
:1015300038408B18A0401C1853460594009328E7A8
:10154000281CFFF79FFE4246414602408843C3B233
:1015500001321B031A435CE7281CFFF793FE434646
:10156000424602409843C3B201321B031A43301C67
:1015700003210323FFF7B2FC002800D0EAE6BBE614
:10158000281CFFF77FFE021E00D1E3E6031C414644
:101590008B43DBB2002B00D0DCE6301C0421FFF7CC
:1015A0009DFC002800D0D5E6A6E60C40A022013420
:1015B00012032243DBE7281CFFF764FE4146021CAE
:1015C0008A43D2B210320840120301300243BAE615
:1015D00010B5C26C84B0546801AB20020190101C9D
:1015E0000830029003201872D279081C191C5A7214
:1015F000FFF772FE04B010BD08B5FFF769FE806CFE
:1016000008BDC04608B5FFF763FEC36CD8791A1D44
:1016100001308000101808BD08B502F09DF8C046E2
:1016200008B502F099F8C04690B587B002AFF860EF
:10163000B9607A603B6005483968FA68BB687C68C5
:10164000009400F02BF800BEFDE7C046CC38000047
:1016500080B584B000AFF860B9603B60FB1D1A70C4
:10166000FB1D1B78002B06D109490A4A0A4B081CAE
:101670006921FFF7D9FFF868FB1D1978BA683B6844
:1016800000F03CF9031C181CBD4604B080BDC046E8
:101690000C390000083C0000303900000FB480B560
:1016A000A4B000AF00238C22D2191360002388223B
:1016B000D21913603B1D1A1C8023101C00211A1C18
:1016C00002F097F83B1C9C338422D21913609823B4
:1016D000DB1918688422D21911683A1D0E4B00F0EC
:1016E00009FA031C8C22D21913608C22D2191368B8
:1016F0003A1D101C191C00F025F9031C8822D21970
:1017000013608822D2191368181CBD4624B080BC0F
:1017100008BC04B01847C0461D17000080B586B04D
:1017200000AFF860B9603B60FB1D1A7000237B615D
:1017300000237B611DE0BB681B6801337F2B09D947
:10174000BB681B68FA68101C191C00F0FBF8BB682A
:1017500000221A60BB681B68FA68D318FA1D127859
:101760001A70BB681B685A1CBB681A607B6901331E
:101770007B617A693B689A42DDDBBD4606B080BD7D
:1017800080B582B000AF78600A1CFB1C1A70FB1C8D
:101790001B78002B08D07B68DB78DBB20822134370
:1017A000DAB27B68DA7007E07B68DB78DBB20822AC
:1017B0009343DAB27B68DA70BD4602B080BDC046A2
:1017C00080B582B000AF78600A1CFB1C1A70FB1C4D
:1017D0001B78002B08D07B68DB78DBB20422134334
:1017E000DAB27B68DA7007E07B68DB78DBB2042270
:1017F0009343DAB27B68DA70BD4602B080BDC04662
:1018000080B588B000AFF860B9607A603B60FB6873
:10181000002B06D11B491C4A1C4B081CF021FFF76A
:1018200003FFFB681A791A4B1A71FB681A68184B88
:101830001A60174B1B79012B01D0062B1FD13B1CC3
:101840001433181C01F01EFC3B1C1433BA681A60D8
:101850000F4B19683A1C14327B68081C111C1A1CA7
:1018600001F0FAFA0A4B1B68181C0121FFF788FFE8
:10187000074B1B68181C0121FFF7A2FFC046BD469D
:1018800008B080BD5C390000183C000074390000CD
:10189000A4F1FF1F80B586B000AFF860B960FB1DF2
:1018A0001A7000237B61144B1B79012B01D0062B8E
:1018B00019D1FB1D1B78002B09D00F4B1968FA6852
:1018C000BB68081C111C1A1C01F01CFC0EE00A4B22
:1018D0001968FA68BB68081C111C1A1C01F030FC5E
:1018E000031C7B6102E001237B61C0467B69181CFD
:1018F000BD4606B080BDC046A4F1FF1F80B586B0CE
:1019000000AFF8607A603B603B1C0B330A1C1A7016
:10191000FA683B1C10331A603B1C10333A1C0B3224
:1019200012781A71391C10317A683B68081C111C36
:101930001A1C0023FFF764FF0023181CBD4606B0E5
:1019400080BDC04680B582B000AF786039607B68EA
:10195000002B07D109484023191CFF31084A094BC5
:10196000FFF762FE7A683B68101C191C00F00CF847
:10197000031C181CBD4602B080BDC0468039000063
:10198000203C00009839000080B584B000AF78603A
:1019900039603B1C0F3300221A703B68002B17D0B4
:1019A0007B68002B14D03B1C0F3301221A703B1CA8
:1019B0000F331B78002B0BD07A683B68101C191C66
:1019C0000122FFF767FF031C002B01D000233B60BF
:1019D0003B68181CBD4604B080BDC04680B58CB0C5
:1019E00000AFF860B9607A603B600023FB61FB6880
:1019F000BB61BB695A1CBA6100221A707B68002B5C
:101A000036D0BB681B68FB62FB6A002B07D1BB6941
:101A100030221A70FB690133FB61FB6966E023E049
:101A2000F86A3968FEF710FE031C7B617B693A682F
:101A30005343FA6AD31ABB62BB6A002B06DABB6A4D
:101A40003B623B6A3022D31ABB6202E0BB6A30338E
:101A5000BB627B69FB62BB695A1CBA61BA6AD2B2CB
:101A60001A70FB690133FB61FB6A002BD8D13CE0A3
:101A7000BB681B687B627B6A002B07D1BB69302285
:101A80001A70FB690133FB61FB692FE02AE03B68B8
:101A9000786A191CFEF78AFD031C3B613B683A69B2
:101AA00053437A6AD31A3B623B6A092B03D83B6AD9
:101AB00030333B620BE03B1C38331B78002B01D0EA
:101AC000412300E061233A6A9B180A3B3B623B6971
:101AD0007B62BB695A1CBA613A6AD2B21A70FB695E
:101AE0000133FB617B6A002BD1D1FB69181CBD4619
:101AF0000CB080BD90B59DB002AFF860B9607A605F
:101B00003B6000233B660023FB650023BB613B1C5D
:101B10004A3300221A7000233B61FB687B6698E120
:101B20007B6C252B0CD07B6CDBB279683A1C1832AD
:101B30005BB23C68081C111C1A1C0123A04785E1FC
:101B40003B1C4B3301221A7000237B650023BB65CD
:101B50001CE07B6E01337B667B6E1B785BB27B6423
:101B60007B6C2F2B0DDD7B6C392B0ADC7A6D131C03
:101B70009B009B185B001A1C7B6CD318303B7B6569
:101B800004E07B6E013B7B660123BB65BB6D002BD4
:101B9000DFD006233B657B6E01337B667B6E1B7853
:101BA0005BB22E2B25D100233B650023BB651CE0D7
:101BB0007B6E01337B667B6E1B785BB27B647B6CD8
:101BC0002F2B0DDD7B6C392B0ADC3A6D131C9B002F
:101BD0009B185B001A1C7B6CD318303B3B6504E000
:101BE0007B6E013B7B660123BB65BB6D002BDFD0A9
:101BF00002E07B6E013B7B667B6E01337B667B6E16
:101C00001B785BB27B647B6C642B1BD07B6C692B79
:101C100018D07B6C662B15D07B6C462B12D07B6C5E
:101C2000782B0FD07B6C582B0CD07B6C6F2B09D092
:101C30007B6C622B06D07B6C702B03D07B6C752B7E
:101C400000D0B0E07B6C642B02D07B6C692B19D187
:101C5000BB681A1DBA601B687B613A1C1C323B1CB6
:101C60001433391C4B3109780091101C191C0122C6
:101C70000A23FFF7B3FE031CFB653A1C1C32FB6D05
:101C8000D3183B667B6C582B02D07B6C782B20D111
:101C90007B6C782B03D13B1C4B3300221A70BB6842
:101CA0001A1DBA601B683B613A1C1C323B1C103386
:101CB000391C4B3109780091101C191C002210238B
:101CC000FFF78CFE031CFB653A1C1C32FB6DD3181E
:101CD0003B667B6C6F2B08D07B6C622B05D07B6CDA
:101CE000702B02D07B6C752B3BD1BB681A1DBA6080
:101CF0001B683B617B6C6F2B08D002DC622B0AD027
:101D000018E0702B0CD0752B0FD013E03B1C4A331E
:101D100008221A700EE03B1C4A3302221A7009E0B6
:101D20003B1C4A3310221A7004E03B1C4A330A223F
:101D30001A70C0463B1C4A331B78391C1C313A1CB4
:101D40001032381C4B3000780090081C111C002207
:101D5000FFF744FE031CFB653A1C1C32FB6DD318D5
:101D60003B66FB6D7A6DD31A79683A1C18323C6871
:101D7000081C111C2022A0473B6E002B12D00DE046
:101D80003B6E5A1E3A661B7879683A1C18325BB271
:101D90003C68081C111C1A1C0123A0473B6E1B78D1
:101DA000002BEDD152E07B6C632B13D1BB681A1D65
:101DB000BA601B68DBB25BB23B643B6CDBB2796838
:101DC0003A1C18325BB23C68081C111C1A1C012317
:101DD000A0473BE07B6C732B2CD1BB681A1DBA600B
:101DE0001B68FB64FB6C002B30D0FB6C181C01F0F3
:101DF00053FD031CFB65FB6D7A6DD31A79683A1CA1
:101E000018323C68081C111C2022A0470DE0FB6C16
:101E10005A1CFA641B7879683A1C18325BB23C6829
:101E2000081C111C1A1C0123A047FB6C1B78002BFB
:101E3000EDD10BE07B6CDBB279683A1C18325BB2F7
:101E40003C68081C111C1A1C0123A0477B6E01333F
:101E50007B667B6E1B785BB27B647B6C002B00D057
:101E60005EE6BB69181CBD461BB090BD80B582B054
:101E700000AF78607A68DC235B000349D1507B684F
:101E8000181CBD4602B080BD40420F00B0B5FE4CEC
:101E9000A54426AF3B1CA033181CFFF7E7FFFB4906
:101EA0007B1800221A7001F045FA01F019FA01F0CE
:101EB000D3F9F64ABB1800221A70F4497B181A7835
:101EC000F34B98218900C919CB181032D200002198
:101ED000D154EE4ABB181B78EC497A18591C117082
:101EE000EB4A98218900C9198A181033DB00D318EE
:101EF00006225A60E54ABB181A78E54B98218900FA
:101F0000C919CB181032D2000021D154DF4ABB18B6
:101F10001B78DE497A18591C1170DD4A9821890016
:101F2000C9198A181033DB00D31807225A60D74A20
:101F3000BB181A78D64B98218900C919CB181032D2
:101F4000D2000521D154D14ABB181B78CF497A1849
:101F5000591C1170CE4A98218900C9198A1810336A
:101F6000DB00D31806225A60C84ABB181A78C84B3F
:101F700098218900C919CB181032D2000121D154FF
:101F8000C24ABB181B78C1497A18591C1170C04A43
:101F900098218900C9198A181033DB00D31803224D
:101FA0005A60BA4ABB1800221A70B8497B181A78CE
:101FB000B74B98218900C919CB18D2000221D154FE
:101FC000B24ABB181B78B1497A18591C1170B04A33
:101FD00098218900C9198A18DB00D31805225A6094
:101FE000AA4ABB181A78AA4B98218900C919CB189C
:101FF000D2000321D154A54ABB181B78A3497A18F3
:10200000591C1170A24A98218900C9198A18DB004D
:10201000D31807225A609D4ABB181A789C4B982106
:102020008900C919CB18D2000121D154974ABB1895
:102030001B7896497A18591C1170954A9821890085
:10204000C9198A18DB00D31802225A608F4ABB18BC
:102050001A788F4B98218900C919CB18D200012119
:10206000D1548A4ABB181B7888497A18591C1170B8
:10207000874A98218900C9198A18DB00D3180422DD
:102080005A60824ABB181A78814B98218900C91975
:10209000CB18D2000321D1547C4ABB181B787B4952
:1020A0007A18591C11707A4A98218900C9198A181E
:1020B000DB00D31801225A60744ABB181A78744B9B
:1020C00098218900C919CB18D2000021D1546F4A38
:1020D000BB181B786D497A18591C11706C4A9821ED
:1020E0008900C9198A18DB00D31801225A60674A8F
:1020F000BB181A78664B98218900C919CB18D200F1
:102100000321D154614ABB181B7860497A18591CC5
:1021100011705F4A98218900C9198A18DB00D31809
:1021200000225A60594ABB181A78594B98218900E5
:10213000C919CB18D2000021D154544ABB181B78BE
:1021400052497A18591C1170514A98218900C919AD
:102150008A18DB00D31807225A604C4ABB181A7839
:102160004B4B98218900C919CB18D2000521D154B5
:10217000464ABB181B7845497A18591C1170444AC5
:1021800098218900C9198A18DB00D31807225A60E0
:102190003E4ABB181A783E4B98218900C919CB18C2
:1021A000D2000321D154394ABB181B7837497A1819
:1021B000591C1170364A98218900C9198A18DB0008
:1021C000D31806225A60314ABB181A78304B98212E
:1021D0008900C919CB18D2000421D1542B4ABB184D
:1021E0001B782A497A18591C1170294A98218900AC
:1021F000C9198A18DB00D31804225A60234ABB1875
:102200001A78234B98218900C919CB18D2000321D1
:10221000D1541E4ABB181B781C497A18591C1170DE
:102220001B4A98218900C9198A18DB00D318052296
:102230005A60164ABB181A78154B98218900C9199B
:10224000CB18D2000121D154104ABB181B780F497A
:102250007A18591C11700E4A98218900C9198A18D8
:10226000DB00D31805225A60084ABB181A78084BBD
:1022700098218900C919CB18D2000721D154034AEB
:10228000BB181B7806E0C04608FDFFFF5F02000098
:10229000A0FDFFFF47497A18591C1170464A982142
:1022A0008900C9198A18DB00D31800225A60414AF4
:1022B000BB181A78404B98218900C919CB18D20055
:1022C0000021D1543B4ABB181B783A497A18591C53
:1022D0001170394A98218900C9198A18DB00D3186E
:1022E00000225A60334ABB181A78334B9821890070
:1022F000C919CB18D2000121D1542E4ABB181B7822
:102300002C497A18591C11702B4A98218900C91937
:102310008A18DB00D31803225A603D1CA035264BD7
:1023200098229200D219D4186B46191C221C0C3228
:102330009423081C111C1A1C01F052FA21686268CF
:10234000A368281C01F002F81C4B1B683A1CA03241
:10235000101C191C01F04AF9391CA031184A194BFC
:10236000081C111C1A1C01F04FF93B1CA033181C4F
:1023700001F06EF8144B1B68002B05D0124B1B6844
:102380005A1E114B1A6014E00F4B104A1A600B4B87
:102390001B68181C0A21FEF709F9031C1A1C074BBD
:1023A0001A60064B1A680A4B9A4202D8034B094A34
:1023B0001A60DAE75F020000A0FDFFFF10F1FF1FC7
:1023C00000F0FF1F00F1FF1F14F1FF1FA0860100A6
:1023D0009F86010020A1070080B584B000AFF8609F
:1023E000B9607A600A4BFA681107C0229205114061
:1023F000BA68100680225204024011437A68100520
:102400008022520302400A435A62BD4604B080BD96
:102410000080044080B500AF074B1B68002B06D13D
:102420000649074A074B081C7F21FFF7FDF8024BBE
:102430001B68181CBD4680BDF4F1FF1FB0390000B9
:10244000583C0000C839000080B582B000AFFFF7EB
:10245000E1FF031C7B607B68002B01D17B682DE0D2
:10246000184B1B78DBB21A1C38231340DA08FB1C0C
:102470001A70FB1C1B787A68111CD9400B1C7B60FE
:10248000114B1B78DBB21A1C042313409A08BB1CA7
:102490001A70BB1C1B78002B0FD0FB1C1B78002B69
:1024A00008DB052B02DD072B04DC06E07B685B09FB
:1024B0007B6002E000237B60C0467B68181CBD4641
:1024C00002B080BD004006400050064080B500AF1D
:1024D000084B1B79DBB21A1C102313401B0903D1D4
:1024E000FFF7B2FF031C01E0034B1B68181CBD463D
:1024F00080BDC0460040064018F1FF1F80B584B083
:1025000000AF78603B1C0F3300221A707A6880237A
:102510001B029A4204D83B1C0F3300221A7007E0BA
:102520007A68074B9A4203D83B1C0F3301221A707A
:102530003B1C0F331B78181CBD4604B080BDC04641
:1025400000366E0180B500AF0C4B1B78DBB2DBB2FE
:102550005BB2002B0DDA0A4B1B68002B06D1094930
:10256000094A0A4B081CD521FFF75EF8044B1B688B
:1025700000E00023181CBD4680BDC0460050064048
:10258000F4F1FF1FB0390000703C0000C8390000B2
:1025900080B582B000AF00F0B7F8021C0F4B596A4B
:1025A000C0239B050B401B0F0133101C191CFDF7AA
:1025B000FDFF031C7B60094B5A6A80235B041340B8
:1025C0001B0E01337868191CFDF7F0FF031C7B60BC
:1025D0007B68181CBD4602B080BDC0460080044028
:1025E00080B500AF00F090F8021C074B596AC02379
:1025F0009B050B401B0F0133101C191CFDF7D6FF68
:10260000031C181CBD4680BD0080044080B500AF8F
:1026100000F07AF8021C074B596A80235B030B40D9
:102620001B0D0133101C191CFDF7C0FF031C181CE7
:10263000BD4680BD0080044080B584B000AF021C60
:10264000FB1D1A70FB1D1B780A2B30D89A001C4BFF
:10265000D3181B689F46FFF7C3FF031CFB6029E0EC
:10266000FFF796FF031CFB6024E0FFF76BFF031CE2
:10267000FB601FE000F094F8031CFB601AE000F020
:10268000A3F8031CFB6015E000F072F8031CFB606C
:1026900010E000F039F8031CFB600BE0FFF7B6FF19
:1026A000031CFB6006E0FA239B00FB6002E00023B2
:1026B000FB60C046FB68181CBD4604B080BDC04628
:1026C0002C3C000080B582B000AF78607B681B783E
:1026D000191C7B685B781A1C7B689B78081C111C92
:1026E0001A1CFFF779FE074B064A51687A68D278C0
:1026F0001004E022D20202400A435A60BD4602B0F2
:1027000080BDC0460080044080B582B000AF164B4B
:102710001B79DBB21A1C0C2313409B083B603B68FF
:10272000012B08D002D3022B09D00DE000F020F8D5
:10273000031C7B600BE00D4B1B687B6007E0FFF721
:1027400069FE031C7B6002E000237B60C046064BF1
:102750005B78DBB25B09DBB27A68111CD9400B1CD9
:10276000181CBD4602B080BD0040064018F1FF1F96
:1027700080B500AF094B5B78DBB21A1C1023134005
:1027800001D0002306E0FFF7A1FE021C131C9B00F2
:102790009B181B02181CBD4680BDC0460040064069
:1027A00080B500AF064B1B78DBB21A1C0223134026
:1027B00001D1002301E0034B1B68181CBD4680BDFE
:1027C0000040064018F1FF1F80B582B000AFFFF750
:1027D0007DFE031C7B607B68002B08D0FFF794FF15
:1027E000031C9A087B689A4201D37B6800E00023AF
:1027F000181CBD4602B080BD90B585B000AF7860B2
:102800007B681B683C1C0F34181CFFF777FE031C09
:102810002370184B174A1278D1B249220A40D1B21C
:102820003A1C0F3212789200D0B204220240D2B287
:102830000A43D1B27A6812790A43D1B27A685279DE
:102840000A43D2B21A707B681B79002B0ED0094B59
:102850001B78DBB2DBB25BB2002B07DAC046054B5C
:102860001B78DBB21A1C01231340F8D0BD4605B01B
:1028700090BDC0460050064080B582B000AF0A1C33
:10288000FB1D011C1970BB1D1A702B4B2A4A1278B4
:10289000D1B203220A40D1B2BA1D1278D200D0B20E
:1028A00038220240D2B20A43D2B21A70224B224AD4
:1028B0005278D1B21F220A40D1B2FA1D12785201C9
:1028C000D2B20A43D2B25A701C4B1B78DBB21A1C2C
:1028D0001023134007D0C046184B1B78DBB21A1CDC
:1028E00001231340F8D0C046134B1B79DBB21A1CEE
:1028F000102313401B09F7D1C0460F4B1B79DBB2E5
:102900001A1C0C2313409B08F7D1C0460A4B1B79B5
:10291000DBB21A1C40231340F8D0074B064A127949
:10292000D2B2802149420A43D2B21A710023181C44
:10293000BD4602B080BDC046004006400050064083
:1029400080B582B000AF0A1CFB1D011C1970BB1DB5
:102950001A70FB1D1A78BB1D1B78101C191CFFF781
:102960008BFF031C181CBD4602B080BD80B584B02F
:1029700000AF3A60FB1D021C1A70BB1D0A1C1A70C6
:102980003B68002B06D12749274A284B081C4721C2
:10299000FEF74AFE3B1C0F33FA1D127892081A709C
:1029A0003B1C0E33FA1D117803220A401A703B1C9F
:1029B0000F331A781E4B9200D358BB603B681B78CC
:1029C000002B11D1BB685B69BA1D11783A1C0E321D
:1029D0001278D2008A180121081C9040021CD243B0
:1029E0001A40BB685A611AE03B685B78FA1D11789F
:1029F000BA1D1278081C111C1A1C00F01BF8BB68C9
:102A00005A69BB1D19783B1C0E331B78DB00CB18B1
:102A10000121081C9840031C1A43BB685A61BD463B
:102A200004B080BDD4390000943C0000EC390000B3
:102A3000883C000080B584B000AFFB1D1870BB1D42
:102A400019707B1D1A703B1C0F33FA1D1278920807
:102A50001A703B1C0E33FA1D117803220A401A70BB
:102A60003B1C0F331A78114B9200D358BB607B1D6F
:102A70001B78002B0BD1BB1D1A783B1C0E331B7827
:102A8000DB00D31801229A40BB689A600AE0BB1DA4
:102A90001A783B1C0E331B78DB00D31801229A40B6
:102AA000BB685A60BD4604B080BDC046883C00008B
:102AB00080B582B000AF786039607B68DB78DBB2CC
:102AC0001A1C1023134006D17B689B78DBB21A1CBA
:102AD0002023134007D00A4B1B6879683A68081C0A
:102AE000111C984706E0074B1B6879683A68081C78
:102AF000111C9847BFF34F8FBD4602B080BDC04642
:102B0000B4F1FF1FB8F1FF1F80B500AF044B1B6885
:102B1000044A101C191CFFF7CBFFBD4680BDC04600
:102B2000ACF1FF1F0060064080B500AF044B5B684E
:102B3000044A101C191CFFF7BBFFBD4680BDC046F0
:102B4000ACF1FF1F0070064080B500AF094B1B6859
:102B5000002B05D108480949094A0A4BFEF764FDD4
:102B6000094B1A68034B1B680849081C191C90473D
:102B7000BD4680BDBCF1FF1FF4390000910200008A
:102B8000A43C0000803A0000C0F1FF1F004002405A
:102B900090B587B000AF78600A1CFB1C1A707B6888
:102BA0005A09072313407B617A682C4B13403B6121
:102BB0007B68032B3CD97A6880239B0213401BD18E
:102BC000274BDB687A690121081C9040021C013AFE
:102BD000111C3A690C1C9440221CD2431340FB6028
:102BE0001F4BFA1C11783A69081C9040021C111CFA
:102BF000FA680A43DA602DE0194B1B697A690121F2
:102C00000C1C9440221C013A111C3A69081C90408B
:102C1000021CD2431340FB60114BFA1C11783A6935
:102C20000C1C9440221C111CFA680A431A6111E022
:102C30000B4B0B4A526879680120041C8C40211C04
:102C4000C9431140FA1C10787A68041C9440221C75
:102C50000A435A60BD4607B090BDC0461FFFFDFF46
:102C60000080044080B582B000AF78607B681A684D
:102C700080231340181CBD4602B080BD80B582B0D1
:102C800000AF786039607B681A683B681A437B68DC
:102C90001A60BD4602B080BD80B500AF104B1A6807
:102CA000104B1B689A4206D10F4B1B68002B02D0B9
:102CB0000D4B1B6898470D4B181CFFF7D3FF021CE8
:102CC0008023134009D0074B1B685A1C054B1A6020
:102CD000064B181C8021FFF7D1FFBD4680BDC046C2
:102CE000C8F1FF1FC4F1FF1FCCF1FF1F00D003404C
:102CF00080B582B000AF786039607B681B78DBB24A
:102D00001A1C102313400AD00B4B1B680B4A39685E
:102D100089008A587968081C111C984709E0084BFB
:102D20001B68064A396889008A587968081C111C92
:102D30009847BD4602B080BDD8F1FF1FD0F1FF1FFC
:102D4000DCF1FF1F80B500AF084B1B68002B05D1DD
:102D500007480849084A094BFEF766FC084B181C4F
:102D60000021FFF7C5FFBD4680BDC046D0F1FF1F63
:102D7000943A000023040000BC3C0000103B00001B
:102D80000060074080B500AF084B5B68002B05D1A1
:102D900007480849084A094BFEF746FC084B181C2F
:102DA0000121FFF7A5FFBD4680BDC046D0F1FF1F42
:102DB000943A00002B040000D43C0000203B0000AB
:102DC0000070074090B585B000AF78607B681B0C41
:102DD000084A9B18FB60FB68FA6811687A6812045D
:102DE000120C0120041C9440221C0A431A60BD46A8
:102DF00005B090BD0080044080B584B000AF78601D
:102E00000323BB600023FB600AE00F4BFA689200CB
:102E1000D2587B689A4200D106E0FB680133FB6020
:102E2000FA68BB689A42F0D3FA68BB689A4206D344
:102E30000649074A074B081CA521FEF7F5FBFB686E
:102E4000181CBD4604B080BDEC3C0000303B0000C7
:102E5000043D0000483B000090B587B000AFF8602B
:102E6000B9607A60BB68002B06D18049804A814BEB
:102E7000081CD021FEF7D8FBBB681B68002B06D1CD
:102E80007A497B4A7C4B081CD121FEF7CDFB3B1CC9
:102E9000163300221A803B1C153300221A700023BF
:102EA0003B61BB681B681B017868191CFDF77EFB42
:102EB000031C1A1C3B1C16331A803B1C16331B8840
:102EC000002B03D13B1C163301221A803B1C163306
:102ED0001B881B017868191CFDF768FB031C1A1C72
:102EE000BB681B68D31A3B61BB681C683B1C16336C
:102EF0001B8801331B017868191CFDF757FB031C65
:102F0000E21A3B699A4214D2BB681C683B1C163318
:102F10001B8801331B017868191CFDF747FB031C54
:102F2000E31A3B613B1C16331A883B1C16330132F3
:102F30001A80BB681B68181C6421FDF737FB031C53
:102F40001A1C131C5B009A183B699A4201D24B4B26
:102F500087E0FB68181CFFF74FFF021C484B9200EC
:102F6000D358181CFFF72EFFFB68DB78DBB20C226E
:102F70009343DAB2FB68DA70FB681B78DBB21F227E
:102F80009343DAB23B1C16331B881B0A9BB2DBB29D
:102F90001343DAB2FB681A703B1C16331B88DAB293
:102FA000FB685A70FB689B78DAB23B1C153317211B
:102FB0008A431A70BB689B799B00DAB204231340E2
:102FC000D9B23B1C15333A1C153212780A431A70D9
:102FD000BB681B79002B0BD0BB681A793B1C1533DF
:102FE0001B781343DAB23B1C153310210A431A70C5
:102FF000FB683A1C153212789A70FB681B78DBB2BA
:1030000020229343DAB2BB685B795B01D9B22023FB
:103010000B40DBB21343DAB2FB681A703B1C15336A
:10302000FA68D2781A70BB68DB79002B07D03B1C9A
:1030300015333A1C1532127808210A431A70BB68FE
:103040001B7A002B07D03B1C15333A1C1532127823
:1030500004210A431A70FB683A1C15321278DA70A0
:103060000023181CBD4607B090BDC046303B000091
:10307000183D00006C3B0000743B0000F5030000AD
:10308000F83C000080B582B000AF78607B68002B10
:1030900007D10F487023191CFF310E4A0E4BFEF763
:1030A000C3FA7B68E12252021A607B6800221A711F
:1030B0007B6800225A717B6800229A717B6800222B
:1030C000DA717B6800221A72BD4602B080BDC0462C
:1030D000303B0000243D00006C3B000080B584B014
:1030E00000AF78607B681B79DBB21A1C7B685B7968
:1030F000DBB21B021343FB60FB68181CBD4604B027
:1031000080BDC04680B584B000AFF860B9607A6019
:103110000DE0C046FB681B79DBB2DBB25BB2002B73
:10312000F8DABB685A1CBA601A78FB68DA717B68F7
:103130005A1E7A60002BECD1BD4604B080BDC0465B
:1031400080B586B000AFF860B9607A60BB68002BCC
:1031500005D11F481F49204A204BFEF765FA2DE094
:103160001EE0FB68181CFFF7B9FF031C7B617A693E
:103170000823134001D01A4B26E07A690423134038
:1031800001D0184B20E07A690223134001D0164B7E
:103190001AE07A690123134002D0FD239B0013E05B
:1031A000FB681B79DBB21A1C20231340D9D0BB6803
:1031B0005A1CBA60FA68D279D2B21A707B685A1E69
:1031C0007A60002BCCD10023181CBD4606B080BD10
:1031D000303B0000530200003C3D00009C3B0000DF
:1031E000F1030000F2030000F303000080B500AF1C
:1031F000044B1A68044B1B680449081C191C9047AF
:10320000BD4680BDECF1FF1FE0F1FF1F00A00640AE
:1032100080B500AF044B1A68044B5B680449081C76
:10322000191C9047BD4680BDECF1FF1FE0F1FF1F68
:1032300000B0064080B500AF044B1A68044B9B6891
:103240000449081C191C9047BD4680BDECF1FF1FC6
:10325000E0F1FF1F00C0064080B582B000AF022041
:10326000FFF7EAF9031C7B600549E1235A027B68FA
:10327000081C111C0122FEF7EBF9BD4602B080BD0F
:1032800000B0064080B500AF024B802252045A6263
:10329000BD4680BD0080044080B582B000AF021CF6
:1032A000FB1D1A70074B074A1278D2B203218A43DA
:1032B000D1B2FA1D12780A43D2B21A70BD4602B0DA
:1032C00080BDC0460040064080B582B000AF786047
:1032D000024B7A681A60BD4602B080BDF4F1FF1F50
:1032E00080B500AFFFF7CEFF0D4B181CFFF784FA37
:1032F0000C4B181CFFF7E8FF00220323101C191CBD
:10330000FFF71EFB0223181CFFF7C6FF064B181C15
:10331000FFF7D8F9054B064A1A60BD4680BDC04686
:10332000543D000000127A00503D00001CF1FF1FC8
:10333000005A620280B500AF034B181C0021FFF752
:1033400027FCBD4680BDC0462C00020084B090B56D
:1033500085B000AF786004202024E41920180160B3
:10336000426083603A1C0C32384B111C1A1C022339
:10337000081C111C1A1C00F033FA3B1C0F330022EE
:103380001A707A6804232021C919CB18111C1A1C41
:10339000A023081C111C1A1C00F022FA3B1C0F333E
:1033A00000221A701DE03B1C0F331A787B68103224
:1033B000D200D15C3B1C0F331B787A681033DB00E2
:1033C000D3185B68DAB23B1C0C33081C111C1A1CA6
:1033D000FFF7CCFA3B1C0F331A783B1C0F3301323A
:1033E0001A703B1C0F331B78032BDCD93B1C0C33AE
:1033F00000225A703B1C0F3300221A701BE03B1C4A
:103400000F331A787B68D200D15C3B1C0F331B78DA
:103410007A68DB00D3185B68DAB23B1C0C33081CFB
:10342000111C1A1CFFF7A2FA3B1C0F331A783B1C25
:103430000F3301321A703B1C0F331B780F2BDED970
:10344000BD4605B090BC08BC04B01847DC3B00008A
:10345000B0B584B000AF78603B1C0F3300221A7007
:103460007A68A023D358002B61D07A68A023D35860
:10347000591E7A68A023D1507A68A423D358002B10
:1034800007D07A68A423D358591E7A68A423D15050
:10349000A0E0524B1B78524A101C191CFEF7FEF894
:1034A0007A68DC235B00D35819097A68A423D150C9
:1034B0003B1C0F3300221A7026E03B1C0F331A7896
:1034C0007B68D200D15C3B1C0F331B787A68DB0031
:1034D000D3185B68DAB2414B1B781C1C3B1C0F33C2
:1034E00018787D68A82324012C192018C3181B788C
:1034F000081C111C1A1CFFF79DFA3B1C0F331A788D
:103500003B1C0F3301321A703B1C0F331B780F2BFF
:10351000D3D9324B1B780133DAB2304B1A702F4BB0
:103520001B780F2B56D92D4B00221A7052E02D4BD1
:103530001B782D4A101C191CFEF7B0F87A68DC23A2
:103540005B00D1587A68A023D1507A68A423002167
:10355000D1503B1C0F3300221A7029E03B1C0F3363
:103560001A787B681032D200D15C3B1C0F331B7879
:103570007A681033DB00D3185B68DAB2194B1B781A
:103580001C1C3B1C0F3318787D68D4235B00A400FF
:103590002C192018C3181B78081C111C1A1CFFF7C3
:1035A00049FA3B1C0F331A783B1C0F3301321A7057
:1035B0003B1C0F331B78032BD0D90A4B1B780133EC
:1035C000DAB2084B1A70074B1B78032B02D9054B54
:1035D00000221A70BD4604B0B0BDC046F0F1FF1F16
:1035E000E03B0000F1F1FF1FF43B000080B582B02A
:1035F00000AF786039607A68DC235B003968D150AD
:10360000BD4602B080BDC04690B587B000AFF8603F
:10361000B9607A603B1C173300221A703B1C1633CA
:1036200000221A703B1C173300221A702EE03B1C3C
:10363000163300221A701DE03B1C173318783B1C10
:10364000163319783B1C17331B781B01BA68D21844
:103650003B1C16331B78D25CFC68A82300012018A1
:103660004118CB181A703B1C16331A783B1C1633C2
:1036700001321A703B1C16331B780F2BDCD93B1C14
:1036800017331A783B1C173301321A703B1C17335F
:103690001B780F2BCBD93B1C173300221A702FE05D
:1036A0003B1C163300221A701EE03B1C173318789F
:1036B0003B1C163319783B1C17331B789B007A6828
:1036C000D2183B1C16331B78D25CFC68D4235B00F9
:1036D000800020184118CB181A703B1C16331A783A
:1036E0003B1C163301321A703B1C16331B78032B1C
:1036F000DBD93B1C17331A783B1C173301321A7085
:103700003B1C17331B78032BCAD9BD4607B090BDAD
:1037100080B500AF0D4B0E4A5A800C4B0D4A5A80B3
:103720000A4B012252429A80084B084A1278D1B2C1
:103730005F220A40D2B220210A43D2B21A70034B50
:10374000024A5278D2B25A70BD4680BD0020054070
:10375000C5200000D928000008B5062000F07CF83C
:10376000012000F0B1F80000084B10B5041C002B3C
:1037700002D0002100E000BF054B1868836A002BCF
:1037800000D09847201C00F09FF8C04600000000C1
:10379000603D000070B50E4B0E4D0024ED1AAD10CB
:1037A0001E1CAC4204D0A300F35898470134F8E73C
:1037B00000F0D8FA084B094D0024ED1AAD101E1C7C
:1037C000AC4204D0A300F35898470134F8E770BD29
:1037D000443F0000443F0000443F0000483F0000D9
:1037E00010B50023934203D0CC5CC4540133F9E7F5
:1037F00010BD031C8218934202D019700133FAE7FE
:10380000704738B5041C0D1E1F2D04D91623036004
:10381000012040421FE0436C002B04D08A009A181C
:103820001368002B08D1201C00F032F82A1C011C60
:10383000201C00F01BF80EE0012B0BD0591C03D10B
:1038400016230360012006E00024281C146098471A
:10385000201C00E0002038BD08B5034B011C18688F
:10386000FFF7CFFF08BDC04680F1FF1F38B5074CFA
:103870000023051C081C111C236000F01DF8431CCC
:1038800003D12368002B00D02B6038BDF8F1FF1F57
:1038900008B500F009F808BD0023C25C0133002A16
:1038A000FBD1581E70470000024B582201204042B5
:1038B0001A607047F8F1FF1F024B58220120404266
:1038C0001A607047F8F1FF1FFEE7C04641535345A9
:1038D0005254204552524F52202220257320223A22
:1038E0002066696C652022257322204C696E652054
:1038F000222564222066756E6374696F6E206E6186
:103900006D652022257322200A0000002E2E2F75BF
:1039100074696C69746965732F66736C5F64656242
:1039200075675F636F6E736F6C652E6300000000D8
:1039300064657669636520213D2044454255475FB3
:10394000434F4E534F4C455F4445564943455F54A2
:103950005950455F4E4F4E45000000002E2E2F75EA
:1039600074696C69746965732F66736C5F696F2E17
:10397000630000004E554C4C20213D20696F000033
:103980002E2E2F7574696C69746965732F66736C5C
:103990005F6C6F672E63000062756620213D204ECC
:1039A000554C4C00636820213D204E554C4C000086
:1039B0002E2E2F647269766572732F66736C5F6347
:1039C0006C6F636B2E630000675F7874616C3046C8
:1039D000726571002E2E2F647269766572732F6680
:1039E000736C5F6770696F2E63000000636F6E66B3
:1039F000696700002E2E2F647269766572732F66D8
:103A0000736C5F6D7363616E2E630000696E737417
:103A1000616E6365203C2041525241595F53495ABF
:103A20004528735F6D7363616E426173657329002E
:103A300062617564526174655F427073203C3D2021
:103A40003130303030303055000000007072694441
:103A50006976203C3D20736F75726365436C6F63BC
:103A60006B5F487A00000000636F6E666967000054
:103A700068616E646C650000786665720000000025
:103A8000735F6D7363616E48616E646C655B305D1E
:103A9000000000002E2E2F647269766572732F6607
:103AA000736C5F7370692E6300000000696E73743D
:103AB000616E6365203C2041525241595F53495A1F
:103AC0004528735F73706942617365732900000054
:103AD000636F6E66696720262620737263436C6F7E
:103AE000636B5F487A000000636F6E666967000071
:103AF000786665720000000068616E646C650000A5
:103B000068616E646C652026262078666572000008
:103B1000735F73706948616E646C655B305D000053
:103B2000735F73706948616E646C655B315D000042
:103B30002E2E2F647269766572732F66736C5F75B3
:103B40006172742E63000000696E7374616E636548
:103B5000203C20756172744172726179436F756E99
:103B60007400000068616E646C650000636F6E66CF
:103B700069670000636F6E6669672D3E62617564F8
:103B8000526174655F427073000000006261756489
:103B9000526174655F42707300000000646174617B
:103BA0000000000072696E6742756666657200000B
:103BB0007866657200000000786665722D3E64616B
:103BC000746153697A650000786665722D3E6461A0
:103BD00074610000636F756E7400000001010000E5
:103BE0000A0D4C45447320496E6465783A2025647B
:103BF000000000000A0D506C616E7320496E646510
:103C0000783A202564000000446267436F6E736F4A
:103C10006C655F496E697400494F5F496E69740055
:103C20004C4F475F50757368000000005626000037
:103C30005626000060260000602600006A2600006C
:103C40007E260000742600008826000092260000D0
:103C50009C260000A6260000434C4F434B5F47655F
:103C600074494353457874436C6B46726571000028
:103C7000434C4F434B5F4765744F7363304572430A
:103C80006C6B46726571000000F00F4040F00F4011
:103C900080F00F404750494F5F50696E496E69741C
:103CA000000000004D5343414E5F447269766572D7
:103CB00049525148616E646C65720000535049303E
:103CC0005F44726976657249525148616E646C65F1
:103CD00072000000535049315F4472697665724941
:103CE000525148616E646C657200000000A006408D
:103CF00000B0064000C00640140014001500140077
:103D000016001400554152545F476574496E737430
:103D1000616E636500000000554152545F496E6951
:103D200074000000554152545F47657444656661F4
:103D3000756C74436F6E666967000000554152549C
:103D40005F52656164426C6F636B696E670000006F
:103D50000001000000127A00108000004300000003
:103D600020F1FF1FF8B5C046F8BC08BC9E4670475E
:0C3D7000F8B5C046F8BC08BC9E46704781
:103D7C00B2970181B00B84170000000004970181F9
:103D8C00B00309840000000003970181B0B00B84DC
:103D9C000000000072B20181B0AB30800000000066
:103DAC0008B10181B0B000840000000008B10181AD
:103DBC00B0B000840000000008B10181B0B00084F4
:103DCC0000000000800A0181B0B0ABF000000000E0
:103DDC0008B10181B0B000840000000008B101817D
:103DEC00B0B000840000000008B10181B0B00084C4
:103DFC00000000003F010181B0AB1080000000000A
:103E0C0008B10181B0B0008400000000800601817F
:103E1C00B0B0ABF00000000008B10181B0B000847C
:103E2C000000000008B10181B0B000840000000067
:103E3C0034C6FF7F0100000080C9FF7FB0A902805B
:103E4C0018CAFF7FB0B0A88068CAFF7F01000000CD
:103E5C0078CAFF7FA908B180ACCAFF7F38FFFF7F0B
:103E6C0078CBFF7F0100000074CBFF7FAA3F378027
:103E7C00BCCBFF7F2CFFFF7FC8CBFF7FA908B18095
:103E8C0008CCFF7F28FFFF7F1CCCFF7F01000000C8
:103E9C0018CCFF7F24FFFF7F20CCFF7F01000000A8
:103EAC00B4CCFF7FAA0DB28018CDFF7F18FFFF7F27
:103EBC00FCCFFF7F1CFFFF7F00D0FF7F20FFFF7F29
:103ECC0004D0FF7F24FFFF7F08D0FF7F28FFFF7FF8
:103EDC0064D2FF7F01000000D4D3FF7F00840480F4
:103EEC00E4D3FF7F1CFFFF7FE4D3FF7F20FFFF7F26
:103EFC00D4D6FF7FB0A80380F4D6FF7F1CFFFF7FD2
:103F0C00F8D6FF7F20FFFF7F04D7FF7F0100000062
:103F1C0070DFFF7F5CFEFF7FB4E4FF7F01000000D9
:103F2C0020F4FF7F58FEFF7F1CF5FF7F5CFEFF7FB8
:083F3C00B0F6FF7F0100000058
:043F4400390400003C
:043F48001104000060
:103F4C000001010101010101010101010001010157
:103F5C000100010101010101010101010100010147
:103F6C000101000101010101010101010101000137
:103F7C000101010001010101010101010101010027
:103F8C000101010100010101010101010101000117
:103F9C000101010101000101010101010100010107
:103FAC0001010101010100010101010100010101F7
:103FBC0001010101010101000101010101000101E7
:103FCC0001010101010101010001010101010001D7
:103FDC0001010101010101010100010101010100C7
:103FEC0001010101010101010101000101010001B7
:103FFC0001010101010101010101010001000101A7
:10400C000101010101010101010101010001010195
:10401C000101010101010101010101010100010185
:10402C000101010101010101010101010101000175
:10403C000101010101010101010101010101010065
:10404C000101010101010101010101010101010154
:10405C0020A10700E80300007C920000006CDC0249
:10406C000000000000000000000000000000000044
:10407C000000000000000000000000000000000034
:10408C005C3D00000000000000000000000000008B
:10409C000000000000000000000000000000000014
:1040AC000000000000000000000000000000000004
:1040BC0000000000000000000000000000000000F4
:0840CC0020F1FF1F00000000BD
:04000003000004E90C
:00000001FF
